{
  "_format": "hh-sol-artifact-1",
  "contractName": "EvidenceManagement",
  "sourceName": "contracts/EvidenceManager.sol",
  "abi": [
    {
      "anonymous": false,
      "inputs": [
        {
          "indexed": true,
          "internalType": "address",
          "name": "account",
          "type": "address"
        }
      ],
      "name": "AccountConnected",
      "type": "event"
    },
    {
      "anonymous": false,
      "inputs": [
        {
          "indexed": true,
          "internalType": "address",
          "name": "uploader",
          "type": "address"
        },
        {
          "indexed": false,
          "internalType": "string",
          "name": "fileName",
          "type": "string"
        },
        {
          "indexed": false,
          "internalType": "string",
          "name": "fileType",
          "type": "string"
        },
        {
          "indexed": false,
          "internalType": "string",
          "name": "functionName",
          "type": "string"
        },
        {
          "indexed": false,
          "internalType": "string",
          "name": "description",
          "type": "string"
        },
        {
          "indexed": false,
          "internalType": "string",
          "name": "timestamp",
          "type": "string"
        }
      ],
      "name": "EvidenceUploaded",
      "type": "event"
    },
    {
      "inputs": [],
      "name": "connectAccount",
      "outputs": [],
      "stateMutability": "nonpayable",
      "type": "function"
    },
    {
      "inputs": [
        {
          "internalType": "uint256",
          "name": "",
          "type": "uint256"
        }
      ],
      "name": "evidences",
      "outputs": [
        {
          "internalType": "string",
          "name": "fileName",
          "type": "string"
        },
        {
          "internalType": "string",
          "name": "fileType",
          "type": "string"
        },
        {
          "internalType": "string",
          "name": "fileContent",
          "type": "string"
        },
        {
          "internalType": "string",
          "name": "functionName",
          "type": "string"
        },
        {
          "internalType": "string",
          "name": "description",
          "type": "string"
        },
        {
          "internalType": "string",
          "name": "timestamp",
          "type": "string"
        },
        {
          "internalType": "address",
          "name": "uploader",
          "type": "address"
        }
      ],
      "stateMutability": "view",
      "type": "function"
    },
    {
      "inputs": [],
      "name": "getEvidences",
      "outputs": [
        {
          "components": [
            {
              "internalType": "string",
              "name": "fileName",
              "type": "string"
            },
            {
              "internalType": "string",
              "name": "fileType",
              "type": "string"
            },
            {
              "internalType": "string",
              "name": "fileContent",
              "type": "string"
            },
            {
              "internalType": "string",
              "name": "functionName",
              "type": "string"
            },
            {
              "internalType": "string",
              "name": "description",
              "type": "string"
            },
            {
              "internalType": "string",
              "name": "timestamp",
              "type": "string"
            },
            {
              "internalType": "address",
              "name": "uploader",
              "type": "address"
            }
          ],
          "internalType": "struct EvidenceManagement.Evidence[]",
          "name": "",
          "type": "tuple[]"
        }
      ],
      "stateMutability": "view",
      "type": "function"
    },
    {
      "inputs": [
        {
          "internalType": "string",
          "name": "_fileName",
          "type": "string"
        },
        {
          "internalType": "string",
          "name": "_fileType",
          "type": "string"
        },
        {
          "internalType": "string",
          "name": "_fileContent",
          "type": "string"
        },
        {
          "internalType": "string",
          "name": "_functionName",
          "type": "string"
        },
        {
          "internalType": "string",
          "name": "_description",
          "type": "string"
        },
        {
          "internalType": "string",
          "name": "_timestamp",
          "type": "string"
        }
      ],
      "name": "uploadEvidence",
      "outputs": [],
      "stateMutability": "nonpayable",
      "type": "function"
    }
  ],
  "bytecode": "0x608060405234801561001057600080fd5b5061123a806100206000396000f3fe608060405234801561001057600080fd5b506004361061004c5760003560e01c80632e4546cd146100515780634ce139ce14610087578063dff95aac146100a3578063f57e2a6c146100c1575b600080fd5b61006b60048036038101906100669190610cd5565b6100cb565b60405161007e9796959493929190610f6e565b60405180910390f35b6100a1600480360381019061009c9190610bbc565b61046d565b005b6100ab610636565b6040516100b89190610ed6565b60405180910390f35b6100c9610a57565b005b600081815481106100db57600080fd5b90600052602060002090600702016000915090508060000180546100fe9061114c565b80601f016020809104026020016040519081016040528092919081815260200182805461012a9061114c565b80156101775780601f1061014c57610100808354040283529160200191610177565b820191906000526020600020905b81548152906001019060200180831161015a57829003601f168201915b50505050509080600101805461018c9061114c565b80601f01602080910402602001604051908101604052809291908181526020018280546101b89061114c565b80156102055780601f106101da57610100808354040283529160200191610205565b820191906000526020600020905b8154815290600101906020018083116101e857829003601f168201915b50505050509080600201805461021a9061114c565b80601f01602080910402602001604051908101604052809291908181526020018280546102469061114c565b80156102935780601f1061026857610100808354040283529160200191610293565b820191906000526020600020905b81548152906001019060200180831161027657829003601f168201915b5050505050908060030180546102a89061114c565b80601f01602080910402602001604051908101604052809291908181526020018280546102d49061114c565b80156103215780601f106102f657610100808354040283529160200191610321565b820191906000526020600020905b81548152906001019060200180831161030457829003601f168201915b5050505050908060040180546103369061114c565b80601f01602080910402602001604051908101604052809291908181526020018280546103629061114c565b80156103af5780601f10610384576101008083540402835291602001916103af565b820191906000526020600020905b81548152906001019060200180831161039257829003601f168201915b5050505050908060050180546103c49061114c565b80601f01602080910402602001604051908101604052809291908181526020018280546103f09061114c565b801561043d5780601f106104125761010080835404028352916020019161043d565b820191906000526020600020905b81548152906001019060200180831161042057829003601f168201915b5050505050908060060160009054906101000a900473ffffffffffffffffffffffffffffffffffffffff16905087565b60006040518060e001604052808881526020018781526020018681526020018581526020018481526020018381526020013373ffffffffffffffffffffffffffffffffffffffff16815250908060018154018082558091505060019003906000526020600020906007020160009091909190915060008201518160000190805190602001906104fd929190610a9c565b50602082015181600101908051906020019061051a929190610a9c565b506040820151816002019080519060200190610537929190610a9c565b506060820151816003019080519060200190610554929190610a9c565b506080820151816004019080519060200190610571929190610a9c565b5060a082015181600501908051906020019061058e929190610a9c565b5060c08201518160060160006101000a81548173ffffffffffffffffffffffffffffffffffffffff021916908373ffffffffffffffffffffffffffffffffffffffff16021790555050503373ffffffffffffffffffffffffffffffffffffffff167f5ab4036ad58d38cd036d3a26860400c4229401942d2b6468e9f3795301df4eea8787868686604051610626959493929190610ef8565b60405180910390a2505050505050565b60606000805480602002602001604051908101604052809291908181526020016000905b82821015610a4e57838290600052602060002090600702016040518060e001604052908160008201805461068d9061114c565b80601f01602080910402602001604051908101604052809291908181526020018280546106b99061114c565b80156107065780601f106106db57610100808354040283529160200191610706565b820191906000526020600020905b8154815290600101906020018083116106e957829003601f168201915b5050505050815260200160018201805461071f9061114c565b80601f016020809104026020016040519081016040528092919081815260200182805461074b9061114c565b80156107985780601f1061076d57610100808354040283529160200191610798565b820191906000526020600020905b81548152906001019060200180831161077b57829003601f168201915b505050505081526020016002820180546107b19061114c565b80601f01602080910402602001604051908101604052809291908181526020018280546107dd9061114c565b801561082a5780601f106107ff5761010080835404028352916020019161082a565b820191906000526020600020905b81548152906001019060200180831161080d57829003601f168201915b505050505081526020016003820180546108439061114c565b80601f016020809104026020016040519081016040528092919081815260200182805461086f9061114c565b80156108bc5780601f10610891576101008083540402835291602001916108bc565b820191906000526020600020905b81548152906001019060200180831161089f57829003601f168201915b505050505081526020016004820180546108d59061114c565b80601f01602080910402602001604051908101604052809291908181526020018280546109019061114c565b801561094e5780601f106109235761010080835404028352916020019161094e565b820191906000526020600020905b81548152906001019060200180831161093157829003601f168201915b505050505081526020016005820180546109679061114c565b80601f01602080910402602001604051908101604052809291908181526020018280546109939061114c565b80156109e05780601f106109b5576101008083540402835291602001916109e0565b820191906000526020600020905b8154815290600101906020018083116109c357829003601f168201915b505050505081526020016006820160009054906101000a900473ffffffffffffffffffffffffffffffffffffffff1673ffffffffffffffffffffffffffffffffffffffff1673ffffffffffffffffffffffffffffffffffffffff16815250508152602001906001019061065a565b50505050905090565b3373ffffffffffffffffffffffffffffffffffffffff167f1e2b1ddb81668a84998f89d60938d36014a7b0c4d427c87e6f2bd708c9d320f160405160405180910390a2565b828054610aa89061114c565b90600052602060002090601f016020900481019282610aca5760008555610b11565b82601f10610ae357805160ff1916838001178555610b11565b82800160010185558215610b11579182015b82811115610b10578251825591602001919060010190610af5565b5b509050610b1e9190610b22565b5090565b5b80821115610b3b576000816000905550600101610b23565b5090565b6000610b52610b4d84611038565b611007565b905082815260208101848484011115610b6a57600080fd5b610b7584828561110a565b509392505050565b600082601f830112610b8e57600080fd5b8135610b9e848260208601610b3f565b91505092915050565b600081359050610bb6816111ed565b92915050565b60008060008060008060c08789031215610bd557600080fd5b600087013567ffffffffffffffff811115610bef57600080fd5b610bfb89828a01610b7d565b965050602087013567ffffffffffffffff811115610c1857600080fd5b610c2489828a01610b7d565b955050604087013567ffffffffffffffff811115610c4157600080fd5b610c4d89828a01610b7d565b945050606087013567ffffffffffffffff811115610c6a57600080fd5b610c7689828a01610b7d565b935050608087013567ffffffffffffffff811115610c9357600080fd5b610c9f89828a01610b7d565b92505060a087013567ffffffffffffffff811115610cbc57600080fd5b610cc889828a01610b7d565b9150509295509295509295565b600060208284031215610ce757600080fd5b6000610cf584828501610ba7565b91505092915050565b6000610d0a8383610e17565b905092915050565b610d1b816110ce565b82525050565b610d2a816110ce565b82525050565b6000610d3b82611078565b610d45818561109b565b935083602082028501610d5785611068565b8060005b85811015610d935784840389528151610d748582610cfe565b9450610d7f8361108e565b925060208a01995050600181019050610d5b565b50829750879550505050505092915050565b6000610db082611083565b610dba81856110ac565b9350610dca818560208601611119565b610dd3816111dc565b840191505092915050565b6000610de982611083565b610df381856110bd565b9350610e03818560208601611119565b610e0c816111dc565b840191505092915050565b600060e0830160008301518482036000860152610e348282610da5565b91505060208301518482036020860152610e4e8282610da5565b91505060408301518482036040860152610e688282610da5565b91505060608301518482036060860152610e828282610da5565b91505060808301518482036080860152610e9c8282610da5565b91505060a083015184820360a0860152610eb68282610da5565b91505060c0830151610ecb60c0860182610d12565b508091505092915050565b60006020820190508181036000830152610ef08184610d30565b905092915050565b600060a0820190508181036000830152610f128188610dde565b90508181036020830152610f268187610dde565b90508181036040830152610f3a8186610dde565b90508181036060830152610f4e8185610dde565b90508181036080830152610f628184610dde565b90509695505050505050565b600060e0820190508181036000830152610f88818a610dde565b90508181036020830152610f9c8189610dde565b90508181036040830152610fb08188610dde565b90508181036060830152610fc48187610dde565b90508181036080830152610fd88186610dde565b905081810360a0830152610fec8185610dde565b9050610ffb60c0830184610d21565b98975050505050505050565b6000604051905081810181811067ffffffffffffffff8211171561102e5761102d6111ad565b5b8060405250919050565b600067ffffffffffffffff821115611053576110526111ad565b5b601f19601f8301169050602081019050919050565b6000819050602082019050919050565b600081519050919050565b600081519050919050565b6000602082019050919050565b600082825260208201905092915050565b600082825260208201905092915050565b600082825260208201905092915050565b60006110d9826110e0565b9050919050565b600073ffffffffffffffffffffffffffffffffffffffff82169050919050565b6000819050919050565b82818337600083830152505050565b60005b8381101561113757808201518184015260208101905061111c565b83811115611146576000848401525b50505050565b6000600282049050600182168061116457607f821691505b602082108114156111785761117761117e565b5b50919050565b7f4e487b7100000000000000000000000000000000000000000000000000000000600052602260045260246000fd5b7f4e487b7100000000000000000000000000000000000000000000000000000000600052604160045260246000fd5b6000601f19601f8301169050919050565b6111f681611100565b811461120157600080fd5b5056fea26469706673582212209ef3dccdce5a4fd6bf423b6dc34585438689a14c80d37911e3065a5ab4a97e3a64736f6c63430008000033",
  "linkReferences": {},
  "deployedLinkReferences": {}
}